:020000040800F2
:1000000000000120BD21000835210008372100082B
:10001000392100083B2100083D21000800000000B4
:100020000000000000000000000000003F21000868
:10003000412100080000000043210008452100087C
:100040000D2200080D2200080D2200080D220008D4
:100050000D2200080D2200080D2200080D220008C4
:100060000D2200080D2200080D2200080D220008B4
:100070000D2200080D2200080D2200080D220008A4
:100080000D2200080D2200080D2200080D22000894
:100090000D2200080D2200080D2200080D22000884
:1000A0000D2200080D2200080D2200080D22000874
:1000B0000D22000800000000000000000D220008D2
:1000C0000D22000800000000000000000D220008C2
:1000D000000000000D2200080D22000800000000B2
:1000E0000D2200080D2200080000000000000000A2
:1000F0000000000000000000000000000000000000
:100100000000000000000000000000000D220008B8
:1001100000000000000000000D2200080D22000871
:100120000D2200080D2200080D2200080D220008F3
:100130000D22000800000000000000000000000088
:100140000D2200080D2200080D2200080D220008D3
:100150000D2200080D2200080D2200080D220008C3
:100160000D2200080D2200080D22000800000000EA
:100170000D2200080D220008000000000000000011
:0C0180000D2200080D2200080D220008CE
:10018C0010B5054C237833B9044B13B10448AFF3C5
:10019C0000800123237010BD1C0000200000000013
:1001AC006822000808B5034B1BB103490348AFF3A1
:1001BC00008008BD0000000020000020682200081C
:1001CC00034613F8012B002AFBD1181A013870478B
:1001DC0053B94AB9002908BF00281CBF4FF0FF31A2
:1001EC004FF0FF3000F07AB9ADF1080C6DE904CE98
:1001FC0000F006F8DDF804E0DDE9022304B07047F6
:10020C002DE9F0478C460D460446089E002B51D133
:10021C008A4217466DD9B2FA82FEBEF1000F0BD09E
:10022C00CEF1200C01FA0EF520FA0CFC02FA0EF7B6
:10023C004CEA050C00FA0EF44FEA174A250CBCFBED
:10024C00FAF81FFA87F90AFB18CC45EA0C4508FBAB
:10025C0009F3AB420AD9ED1908F1FF3280F0238182
:10026C00AB4240F22081A8F102083D44ED1AA4B241
:10027C00B5FBFAF00AFB105544EA054400FB09F9FA
:10028C00A14509D9E41900F1FF3380F00A81A14599
:10029C0040F2078102383C44A4EB090440EA0840D0
:1002AC000021002E61D024FA0EF400233460736018
:1002BC00BDE8F0878B4207D9002E54D0002186E888
:1002CC0021000846BDE8F087B3FA83F1002940F01D
:1002DC008E80AB4202D3824200F2FA80841A65EB24
:1002EC0003050120AC46002E3FD086E81010BDE877
:1002FC00F08712B90127B7FBF2F7B7FA87FEBEF108
:10030C00000F34D1EB1B3A0C1FFA87FC0121B3FB15
:10031C00F2F8250C02FB183345EA03450CFB08F3F5
:10032C00AB4207D9ED1908F1FF3002D2AB4200F213
:10033C00D1808046ED1AA3B2B5FBF2F002FB10554A
:10034C0043EA05440CFB00FCA44507D9E41900F171
:10035C00FF3302D2A44500F2B8801846A4EB0C047B
:10036C0040EA08409DE731463046BDE8F087CEF1C3
:10037C00200405FA0EF307FA0EF720FA04F83A0CEB
:10038C0025FA04F448EA0308B4FBF2F14FEA1845E5
:10039C0002FB11441FFA87FC45EA044501FB0CF3F0
:1003AC00AB4200FA0EF409D9ED1901F1FF3080F0DF
:1003BC008A80AB4240F2878002393D44EB1A1FFA27
:1003CC0088F5B3FBF2F002FB103345EA034500FB62
:1003DC000CF3AB4207D9ED1900F1FF386FD2AB42E9
:1003EC006DD902383D44EB1A40EA01418FE7C1F167
:1003FC00200722FA07F88B4005FA01F448EA0303B8
:10040C0020FA07FE4FEA134CFD404EEA040EB5FBF2
:10041C00FCF94FEA1E440CFB19551FFA83F844EA09
:10042C00054509FB08F4AC4202FA01F200FA01FAA4
:10043C0008D9ED1809F1FF3043D2AC4241D9A9F1EA
:10044C0002091D442D1B1FFA8EFEB5FBFCF00CFBA4
:10045C0010554EEA054400FB08F8A04507D9E418EE
:10046C0000F1FF3529D2A04527D902381C4440EAB7
:10047C000940A4EB0804A0FB02894C45C6464D4636
:10048C0015D312D056B1BAEB0E0364EB050404FA83
:10049C0007F7CB401F43CC40376074600021BDE8A8
:1004AC00F0871846F8E69046E0E6C245EAD2B8EB8B
:1004BC00020E69EB03050138E4E72846D7E740460E
:1004CC0091E78146BEE7014678E702383C4445E7B0
:1004DC00084608E7A8F102083D442BE7704700BF27
:1004EC000FB430B5CDB050AC002154F8045B019181
:1004FC004FF4947202A801F0A9FE23462A464FF449
:10050C00967101A8009400F0E5FA01A8FFF758FED7
:10051C00084C82B201A9FA23204601F0B8FBFA2359
:10052C0002220549204601F0B2FB4DB0BDE8304037
:10053C0004B07047B4040020802200082DE9F84F65
:10054C00D2F810A0D668804689469346002701242D
:10055C00002522462B4640464946FFF739FEB94254
:10056C0008BFB04208D2002654EA05030CD1002380
:10057C008AF80030BDE8F88F04FB07F306FB05335F
:10058C00A4FB06451D44E4E722462B46404649465B
:10059C00FFF71EFE22462B46494607464046FFF70C
:1005AC0017FE2046294690469946DBF80C2000237E
:1005BC00FFF70EFE04460D4626B9002F02DC54EA66
:1005CC000503D1D1092F0AF101020CDD9BF8003093
:1005DC0013F0040F14BF372357231F448AF80070FD
:1005EC0001369246C0E73023F7E7F0B50A69CC68CC
:1005FC000123B0FBF3F5A54203D200261BB91370FF
:10060C00F0BD6343F5E7B0FBF3F5CC6803FB1500D5
:10061C00B3FBF4F31EB9002D01DC002BEED1092D38
:10062C0002F101070ADD0C7814F0040F14BF372413
:10063C0057242C44147001363A46DFE73024F8E78F
:10064C00F0B50A69CC680123B0FBF3F5A54203D2DF
:10065C0000261BB91370F0BD6343F5E7B0FBF3F54F
:10066C00CC6803FB1500B3FBF4F31EB9002D01DCC1
:10067C00002BEED1092D02F101070ADD0C7814F0E4
:10068C00040F14BF372457242C44147001363A46F7
:10069C00DFE73024F8E72DE9F0411369546806468A
:1006AC000F46154613F8012B002A44D12B7A002B48
:1006BC0045D12B78990703D5EA68102A41D1023C21
:1006CC0013F0090F08D1A046B8F1000F3EDC631EF1
:1006DC00002CACBF1C1B1C46297A09B13046B8470C
:1006EC002B789A070DD5EB68102B35D1302130467D
:1006FC00B8472B7813F0040F14BF582178213046DB
:10070C00B8472B78DB0708D5A046B8F1000F27DCDB
:10071C00631E002CACBF1C1B1C46D5F8108018F8AF
:10072C00011B19BB2B7803F00903082B01D1002CFA
:10073C001FDCBDE8F081002CB8DD013CB2E7013CC8
:10074C00B7E7082A08BF04F1FF34B9E72021304687
:10075C00B84708F1FF38B7E7082BD2D13021CEE7E4
:10076C0030213046B84708F1FF38CEE73046B8475D
:10077C00D5E720213046B847013CD8E783680268AA
:10078C0093423CBF4268D154836801338360704705
:10079C002DE9F0478CB006AE804689461C4605967E
:1007AC001178571C11B90CB0BDE8F087252902D07F
:1007BC004046C84797E09DF80430002203F0FC0344
:1007CC0062F3C30302928DF804308DF80C20964628
:1007DC0011469446104692463D4615F8013B002BB7
:1007EC0049D128B19DF804006AF3C3008DF80400C8
:1007FC0029B19DF804106CF300018DF804102AB196
:10080C009DF804206EF341028DF80420A3F1300210
:10081C00092A0FD800210A20A3F13002D7B2092FE0
:10082C0039D9A3F16102052A3AD8A3F157020A2A51
:10083C0031DD02912E2B0BD19DF8043043F00103D6
:10084C008DF8043015F8013BA3F13002092AF9D9CF
:10085C007A2B2CD12B786F1C692B0AD000F2DF80FD
:10086C00582B00F0E58032D9632B00F0C380642B49
:10087C0039D101237DE02D2B06D0302B08D0232B32
:10088C00AFD10122964601E0012082462F46A3E714
:10089C0001218C46FAE700FB012115F8013BBBE76F
:1008AC00A3F14102052AC4D8A3F13702BFE76C2B90
:1008BC0040F0CE802B786C2B40F0AF806B78692B9E
:1008CC0005F1020754D010D8582B1CD006D8002B99
:1008DC003FF469AF252B00F09E8004E0632B00F001
:1008EC008980642B44D03A465AE7732B00F08880F9
:1008FC0005D86F2B6FD0702B00F0C680F3E7752BEB
:10090C0014D0782BEFD110220492A3F15802534249
:10091C009DF80410534163F382010CAAE31D23F0EC
:10092C00070302F82C1D03F108040AE002230A2233
:10093C00022B04920DD1E31D23F0070303F10804ED
:10094C0001AAD3E900012BE00123F0E72F46002395
:10095C00EDE7012B01A9206804F1040537D1FFF75D
:10096C0044FE2C4601AA49464046FFF794FEBAE7DE
:10097C0002230A22022B049215D1E31D23F0070354
:10098C00D3E90001002803F1080471F1000306DA31
:10099C0040424FF02D0361EB41018DF80C3001AA60
:1009AC00FFF7CCFDDEE7012B206804F1040507D12D
:1009BC000028BEBF2D2340428DF80C3001A9CEE794
:1009CC000028BEBF2D2340428DF80C3001A9FFF743
:1009DC0037FEC6E72F46082301A920680493FFF7CA
:1009EC002FFE01AA49464046251DFFF754FE2C4612
:1009FC0079E72F4621784046251DC847F7E72F4653
:100A0C002368059301AA49464046FFF744FE251D7D
:100A1C000596ECE72F462521CAE66F1C1CE7732BC5
:100A2C00EED07FF666AF752B8ED0782B7FF45BAF54
:100A3C00A3F158001022434204929DF80420434134
:100A4C000CA963F3820201F82C2D251D206886E782
:100A5C00692B0ED010D8582B2FD006D8002B3FF472
:100A6C00A2AE252BD6D02F463DE7632BC1D0642BED
:100A7C00F9D12F4600237CE7732BC0D018D86F2BED
:100A8C00A8D0702BEFD12F469DF8043043F0020311
:100A9C0010226FF3820304928DF804303D462068D7
:100AAC0004F1040A01A9FFF7CBFD2F46544659E780
:100ABC00752B3FF44BAF782BD5D11022A3F15801F5
:100ACC0004924B429DF804204B4163F382028DF853
:100ADC000420E4E71FB5002489B10139029001918B
:100AEC0001A808490394FFF753FE0399019B029A4E
:100AFC00994234BF5454D454039804B010BD0846E2
:100B0C00FBE700BF8907000838B50A4B0546186893
:100B1C004FF47A73B0FBF3F000F080F8044638B968
:100B2C00024629464FF0FF3000F044F8204638BD0D
:100B3C00012038BD0000002010B5032000F028F87B
:100B4C000020FFF7E1FF044618B901F097FA2046A0
:100B5C0010BD0124FBE70000024A13680133136047
:100B6C00704700BF48000020014B1868704700BF59
:100B7C004800002038B50446FFF7F6FF631C054615
:100B8C0018BF0134FFF7F0FF401B8442FAD838BD80
:100B9C00074AD36823F4E0631B041B0C43F0BF63C8
:100BAC00000243F4003300F4E0600343D360704769
:100BBC0000ED00E0174B30B5DC68C4F30224C4F13F
:100BCC000703251D042B28BF0423062D4FF0010518
:100BDC0005FA03F303F1FF338CBF033C00241940E7
:100BEC00A14005FA04F4013C2240002842EA01022B
:100BFC004FEA0212AFBF00F1604000F00F00064B4D
:100C0C00D2B2A5BF00F56140D2B21A5480F80023CD
:100C1C0030BD00BF00ED00E014ED00E00138B0F194
:100C2C00807F0AD2064B074A5860F02182F82310C5
:100C3C000020072298601A6070470120704700BF9F
:100C4C0010E000E000ED00E02DE9F04F85B00B68FE
:100C5C00DFF85881534A01934FF00F090023019C90
:100C6C00DC4002D105B0BDE8F08F012404FA03FA90
:100C7C00019C14EA0A0500F08F804C6824F0100BDC
:100C8C00BBF1020F11D1DF0800EB870703F0070E51
:100C9C003E6A4FEA8E0E09FA0EFC26EA0C0C0E691F
:100CAC0006FA0EF646EA0C063E624FEA430C0327A0
:100CBC00066807FA0CF7FF4304F0030E3E400EFAE9
:100CCC000CFE0BF1FF3B4EEA0606BBF1010F066072
:100CDC0011D8866806EA070BCE6806FA0CFE4EEAB7
:100CEC000B068660466826EA0A0AC4F300169E4084
:100CFC0046EA0A064660C66837408E6806FA0CF665
:100D0C003743E600C76047D5D8F8606046F0010667
:100D1C00C8F86060D8F8606023F0030707F18047DB
:100D2C0006F0010607F58037039603F0030E039EC9
:100D3C00BE684FEA8E0E09FA0EFCB0F1904F26EA0F
:100D4C000C0C2BD0184EB0422AD006F58066B0425F
:100D5C0014BF0726022606FA0EF646EA0C06BE60FB
:100D6C001668EF4314F4803F0CBF3E402E431660D0
:100D7C00566814F4003F0CBF3E402E4356609668F4
:100D8C0014F4801F0CBF3E402E439660D668A4021C
:100D9C0054BF3E402E43D660013360E70026DAE7AD
:100DAC000126D8E70004014000040048001002406E
:100DBC000369194214BF0120002070470AB18161F8
:100DCC007047816270470000024A136843F48073D5
:100DDC001360704700700040024B186800F4C0604C
:100DEC00704700BF00700040174B1A68B0F5007FC9
:100DFC0002F4C0621CD1B2F5007F15D01A6822F43F
:100E0C00C06242F400721A60104A116832224A43DE
:100E1C000F49B2FBF1F2194601325869400500D571
:100E2C0022B94B695B050DD400207047013AF4E7F9
:100E3C00B2F5806F1FBF1A6822F4C06242F4806260
:100E4C001A60F1E70320704700700040000000209A
:100E5C0040420F0037B51E4DAB6DDA00044618D575
:100E6C00FFF7BAFFB0F5007F23D1802C29D9A02C35
:100E7C008CBF02200120174A136823F00703034399
:100E8C001360136803F00703181A18BF012003B08E
:100E9C0030BDAB6D43F08053AB65AB6D03F080534D
:100EAC000193019BFFF798FFAB6D23F08053AB656B
:100EBC00D8E7802C07D808D0A4F1700358425841C9
:100ECC00D9E70020D7E70320D5E70220D3E700BFFE
:100EDC000010024000200240254B9A68D96812F09D
:100EEC000C0205D00C2A15D101F00301012918D1EF
:100EFC0019682048090755BFD3F894101968C1F335
:100F0C000321C1F3031150F8210082B30C2A09D03C
:100F1C0000207047042A29D0082A174818BF00203F
:100F2C0070470020D968DA6801F00301C2F302129D
:100F3C00022902F1010205D0032912D0D968C1F3AC
:100F4C00062103E0D9680D48C1F30621DB68B0FB2C
:100F5C00F2F0C3F34163013348435B00B0FBF3F0A1
:100F6C007047D9680448C1F30621EFE7034870477E
:100F7C00001002406823000800127A000024F400DC
:100F8C002DE9F743054608B9012046E0A84C036853
:100F9C00A668E768DB0606F00C0607F0030772D5B7
:100FAC001EB10C2E51D1012F4FD12368980702D5B9
:100FBC00AB69002BE8D02368286A190756BFD4F810
:100FCC00943023681B0903F0F003834228D2FFF707
:100FDC0041FF0028D8D1236843F00803236023681D
:100FEC002A6A23F0F003134323606368EA6923F44D
:100FFC007F4343EA02236360FFF76EFFA3688D4AC9
:10100C00C3F30313D35C03F01F03D8408A4B18605F
:10101C000020FFF779FD002835D003B0BDE8F08340
:10102C00236843F008032360236823F0F003034391
:10103C0023606368EA6923F47F4343EA0223636015
:10104C00FFF708FF0028D7D09EE7AB69002B3AD0FA
:10105C00236843F001032360FFF786FD8046236875
:10106C009A0728D5236843F00803236023682A6A6B
:10107C0023F0F003134323606368EA6923F47F438E
:10108C0043EA022363602B68D8072DD42B68990799
:10109C006BD42B68180700F1A0802B68590700F15E
:1010AC00CD802B68990600F13681AB6A002B40F09D
:1010BC005C810020B1E7FFF757FDA0EB0800022888
:1010CC00CDD90320A9E7236823F001032360FFF7A0
:1010DC004BFD804623689B07D5D5FFF745FDA0EB5C
:1010EC0008000228F6D9ECE7082E03D00C2E08D104
:1010FC00032F06D123689A03C8D56B68002BC5D182
:10110C0042E76B68B3F5803F10D1236843F480331A
:10111C002360FFF729FD804623689B03B6D4FFF7B5
:10112C0023FDA0EB08006428F6D9CAE7B3F5A02F7D
:10113C0004D1236843F480232360E6E7226822F479
:10114C0080322260226822F480222260002BE0D1BF
:10115C00FFF70AFD80462368980397D5FFF704FD37
:10116C00A0EB08006428F6D9ABE7042E03D00C2EB4
:10117C0010D1022F0ED12368590503D5EB68002B33
:10118C003FF402AF63682A6923F0F85343EA026321
:10119C0063607EE7EB687BB1236843F48073236064
:1011AC00FFF7E2FC074623685A05EBD4FFF7DCFC9B
:1011BC00C01B0228F7D984E7236823F480732360CB
:1011CC00FFF7D2FC074623685B057FF562AFFFF79C
:1011DC00CBFCC01B0228F6D973E76B699BB1D4F822
:1011EC00943043F00103C4F89430FFF7BDFC07467C
:1011FC00D4F894309A073FF550AFFFF7B5FCC01BFD
:10120C000228F5D95DE7D4F8943023F00103C4F833
:10121C009430FFF7A9FC0746D4F894309B077FF570
:10122C003CAFFFF7A1FCC01B0228F5D949E700BF72
:10123C00001002404E23000800000020A36DD800CF
:10124C0029D4A36D43F08053A365A36D03F08053A1
:10125C000193019B4FF00108714F3B68D9051DD5D7
:10126C00AB68012B2BD1D4F8903043F00103C4F8B8
:10127C009030FFF779FC41F288390746D4F890306A
:10128C009B0742D5B8F1000F3FF40BAFA36D23F0D1
:10129C008053A36505E74FF00008DDE73B6843F496
:1012AC0080733B60FFF760FC81463B68DA05D7D45E
:1012BC00FFF75AFCA0EB09000228F6D901E7052B31
:1012CC0006D1D4F8903043F00403C4F89030CAE748
:1012DC00D4F8902022F00102C4F89020D4F8902089
:1012EC0022F00402C4F89020002BC2D1FFF73CFC82
:1012FC0041F288390746D4F890309807C2D5FFF7E9
:10130C0033FCC01B4845F6D9DBE6FFF72DFCC01BB0
:10131C004845B3D9D5E66B6A9BB1D4F8983043F005
:10132C000103C4F89830FFF71FFC0746D4F8983037
:10133C009A073FF5BAAEFFF717FCC01B0228F5D988
:10134C00BFE6D4F8983023F00103C4F89830FFF7C7
:10135C000BFC0746D4F898309B077FF5A6AEFFF739
:10136C0003FCC01B0228F5D9ABE60C2E3FF40CAEE7
:10137C00022B236823F08073236036D1FFF7F4FB34
:10138C000646236898012AD4AB6B6A6BDB0643EAEA
:10139C000223EA6A13432A6B013A43EA0213EA6B0B
:1013AC005208013A43EA42532A6C5208013A43EA82
:1013BC004263E360236843F080732360E36843F087
:1013CC008073E360FFF7D0FB0546236899013FF576
:1013DC0070AEFFF7C9FB401B0228F6D971E6FFF788
:1013EC00C3FB801B0228CCD96BE623681A015EBFB5
:1013FC00E36823F00303E360E36823F0887323F4CA
:10140C008033E360FFF7B0FB054623689B017FF553
:10141C0050AEFFF7A9FB401B0228F6D951E600BFDE
:10142C00007000402DE9F0410E46044610B9012031
:10143C00BDE8F081404A136803F007038B4229D3BF
:10144C002368D90731D421688A075BD43A4A1368D8
:10145C0003F007039E425DD311F0040F374D64D1A6
:10146C000B0706D5AB68226923F4605343EAC20329
:10147C00AB60FFF731FDAB68314AC3F30313BDE832
:10148C00F041D35C03F01F03D8402E4B18600020B2
:10149C00FFF73ABB136823F007030B431360136881
:1014AC0003F007039942C2D1CAE76268234D032AAD
:1014BC002B681BD113F0007FB9D0AB6823F003036A
:1014CC001343AB60FFF750FB41F288380746AB681B
:1014DC00626803F00C03B3EB820FB4D0FFF744FB4C
:1014EC00C01B4045F3D90320BDE8F081022A02D18C
:1014FC0013F4003FE0E712B913F0020FDCE713F42A
:10150C00806FD9E70D4AA068936823F0F00303437A
:10151C0093609BE7136823F007033343136013684E
:10152C0003F007039E4282D196E7AB68E26823F48E
:10153C00E0631343AB6093E70020024000100240CD
:10154C004E23000800000020054B064A9B68C3F39D
:10155C000223D35C044A106803F01F03D840704781
:10156C00001002405E23000800000020054B064AD4
:10157C009B68C3F3C223D35C044A106803F01F03B7
:10158C00D8407047001002405E2300080000002085
:10159C00F8B5444BDA6812F0030F05460E461C46AC
:1015AC00006839D0DA6802F0030282424BD1002A7B
:1015BC0049D0DB686A68C3F302130133934242D10A
:1015CC00236823F080632360FFF7CEFA0746236875
:1015DC001A0141D4AF68002E45D0012E4FD122699B
:1015EC00286922F4C002400822F4FE42013842EA83
:1015FC00072242EA40522261236843F08063236051
:10160C00FFF7B2FA064623681B0145D52369AA6980
:10161C00134323610020F8BD022810D0032814D0F6
:10162C00012810D11B689F07F5D5E3686A6823F081
:10163C007303013A184340EA0210E060C0E71B68EC
:10164C0013F4806FF1D10120F8BD1A689103ECD42A
:10165C001B6813F4802FF5E7FFF786FAC01B0228EE
:10166C00B5D90320F8BD2269E96822F07842C90691
:10167C0041EA072322F4FE4213432361BCE72369AA
:10168C00686923F0C063400823F4FE43013843EA41
:10169C00072343EA4063F0E7FFF766FA801B022852
:1016AC00B1D9DEE7001002402DE9F743056815F4C7
:1016BC00006504460ED0C16BB1F5000F53D0B1F5E7
:1016CC00400F55D000295ED10430FFF761FF05466D
:1016DC0000284DD023689E0363D5934EB36DD8007C
:1016EC0040F116810027DFF84482D8F8003043F42B
:1016FC008073C8F80030FFF737FA8146D8F800300D
:10170C00D90542D5002D47D1D6F8903013F440734B
:10171C0014D0226D934211D0D6F89030D6F8902088
:10172C0042F48032C6F89020D6F8902023F440730F
:10173C0022F48032C6F89020C6F89030DA0709D52A
:10174C00FFF712FA41F288398046D6F890309B07A1
:10175C0040F1C080D6F89030226D23F440731343CF
:10176C00C6F8903018E0704AD36843F48033D360E5
:10177C006D4AE16BD2F8883023F440030B43C2F876
:10178C0088300025A6E70125A4E7FFF7EDF9A0EBCB
:10179C0009000228B2D903251FB1B36D23F0805381
:1017AC00B3652368DF0708D55F49206AD1F8882024
:1017BC0022F003020243C1F888209E0708D55A493B
:1017CC00606AD1F8882022F00C020243C1F888200C
:1017DC00980608D55449A06AD1F8882022F44062B2
:1017EC000243C1F88820990508D54F49606BD1F8A0
:1017FC00882022F440220243C1F888205A0508D5DB
:10180C004949A06BD1F8882022F440120243C1F858
:10181C0088205F0608D54449E06AD1F8882022F474
:10182C0040520243C1F88820DE0508D53E49206BA2
:10183C00D1F8882022F440320243C1F88820980461
:10184C000FD5394A216CD2F8883023F040630B4312
:10185C00B1F1006FC2F8883044D1D36843F48013DF
:10186C00D360236859030FD52F4A616CD2F88830A6
:10187C0023F040630B43B1F1006FC2F888303CD1C8
:10188C00D36843F48013D36023685A0412D52649D5
:10189C00A26CD1F8883023F040531343B2F1805F2F
:1018AC00C1F8883006D10221201DFFF771FE0028F7
:1018BC0018BF054623681B0408D51B4AE16CD2F8F7
:1018CC00883023F080430B43C2F88830284603B09D
:1018DC00BDE8F083FFF748F9A0EB080048457FF618
:1018EC0034AF58E7B1F1806FBBD10121201DFFF758
:1018FC004FFE002818BF0546B3E7B1F1806FC3D186
:10190C000121201DFFF744FE002818BF0546BBE748
:10191C00B36D43F08053B365B36D03F08053019303
:10192C00019B0127DFE600BF001002400070004061
:10193C00024A136843F0040313607047001002401E
:10194C000268C169F8B504468368006915680343E9
:10195C006069034382480B43284003431360536878
:10196C00E06823F44053034353607E4BA0699A42D2
:10197C001CBF236A1843936823F4306303439360BA
:10198C00794B9A4214D103F55843784AD3F88830EE
:10199C0003F00303B1F5004FD35C40F0AA80082B91
:1019AC0020D8DFE803F0778F921F9B1F1F1F9E002C
:1019BC006F4B9A4207D103F5E6336E4AD3F8883061
:1019CC0003F00C03E6E7674B9A4240F0C28003F544
:1019DC00C833D3F8885005F44065B5F5806F2AD02C
:1019EC0006D815B301220023236663661046F8BDA2
:1019FC00B5F5006F06D0B5F5406FF3D14FF400404C
:101A0C00082501E05C480225626802EB4203834230
:101A1C00E8D8B0EB023FE5D8082D38D8DFE805F060
:101A2C000F3726372E3737373100FFF78DFD00285B
:101A3C00EAD10246D7E7FFF74FFA0425F7E7FFF79D
:101A4C0083FD62684FF4807156080027E1FB006744
:101A5C00002330463946FEF7BBFB0022474BA0F56E
:101A6C0040719942BED82368D860BCE744485508F9
:101A7C0000230021401941F10001ECE7FFF72CFA9B
:101A8C00DFE750080021002310F50000F3E70122E6
:101A9C000020E3E7FFF758FD61684A0802EB4003BA
:101AAC00B3FBF1F39BB20022A3F110004FF6EF71E0
:101ABC00884297D823F00F012068C3F342030B43ED
:101ACC00C36090E7FFF752FDE6E76068430803F157
:101ADC00F47303F59043B3FBF0F3E3E7FFF7FCF982
:101AEC00DAE76068430803F58033F4E7012200234A
:101AFC00DAE7082B30D8DFE803F005181B2F242F6A
:101B0C002F2F2700FFF720FD626800EB5203B3FB79
:101B1C00F2F39BB20022A3F110004FF6EF71884252
:101B2C003FF660AF2168CB605DE7FFF71FFDEBE789
:101B3C006068430803F5740303F51053B3FBF0F32B
:101B4C00E7E7FFF7C9F9DFE76068430803F50043EF
:101B5C00F4E7B1F5004FC9D001220023DBE700BF49
:101B6C00F369FFEF00800040003801408322000839
:101B7C0000440040872200080024F400FFFC0F0002
:101B8C00000024F4436ADA0710B506D50168846AAC
:101B9C004A6822F4003222434A609C0706D5016849
:101BAC00C46A4A6822F4803222434A60590706D537
:101BBC000168046B4A6822F4802222434A601A07A7
:101BCC0006D50168446B4A6822F4004222434A60FD
:101BDC00DC0606D50168846B8A6822F480522243A5
:101BEC008A60990606D50168C46B8A6822F4005293
:101BFC0022438A605A060FD50168046C4A6822F4A5
:101C0C0080122243B4F5801F4A6005D14A68446CA7
:101C1C0022F4C00222434A601B0606D50268816C7E
:101C2C00536823F400230B43536010BD2DE9F0419E
:101C3C00069D04460F46164698462168CA6937EA3F
:101C4C0002030CBF01220022B24202D00020BDE8E8
:101C5C00F0816B1CF2D09DB923681A6822F4D07203
:101C6C001A609A6822F001029A60202384F871307D
:101C7C0084F87230002384F870300320BDE8F081C2
:101C8C00FEF772FFA0EB08008542D6D2E4E72DE9FF
:101C9C00F3411F4690F87130202B04460D469046B8
:101CAC004AD1002946D0002A44D090F87030012B3C
:101CBC0042D0012380F8703000234367212380F841
:101CCC007130FEF751FFA4F850800646A4F85280FC
:101CDC00B4F85220009792B2334652B940212046B4
:101CEC00FFF7A4FF58B9202384F8713084F87000F2
:101CFC0006E0002280212046FFF798FF18B1032050
:101D0C0002B0BDE8F081A3682268B3F5805F0DD105
:101D1C0023695BB935F8023BC3F308031385B4F8A8
:101D2C005230013B9BB2A4F85230D1E72B7813858B
:101D3C000135F4E70120E3E70220E1E773B504463F
:101D4C0000264667FEF710FF23681B681A07054636
:101D5C0017D423681B685B070AD56FF07E4300938A
:101D6C0000222B464FF480012046FFF75FFFA0B9FD
:101D7C002023002084F8713084F8700084F87230CD
:101D8C000CE06FF07E430093324603464FF4001193
:101D9C002046FFF74BFF0028DBD0032002B070BDBC
:101DAC0010B5044660B390F8713003F0FF021BB914
:101DBC0080F8702000F07AF92268242384F87130BE
:101DCC00136823F0010313602046FFF7B9FD0128C7
:101DDC0016D0636A13B12046FFF7D4FE23685A6805
:101DEC0022F490425A609A6822F02A029A601A6889
:101DFC0042F0010220461A60BDE81040FFF79EBF7A
:101E0C00012010BD30B50F4B5D7A05F0FF04B5B95C
:101E1C005D7A5C555D7A03EB85056860587A1844E9
:101E2C0002725A7AD2B2501CC0B258723A23303273
:101E3C004B702F230A708B70CC70204630BD012064
:101E4C0030BD00BF380000200022FFF7DBBF0000D0
:101E5C0008B503490348FFF7F7FF034B187008BD9B
:101E6C004C000020080000205000002070B5ACB0E1
:101E7C0014244422002106A800F0E8F9224600218F
:101E8C0001A800F0E3F90021542217A800F0DEF9B4
:101E9C00FEF79AFF194AD2F8903023F01803C2F8D3
:101EAC00903060230E931023012502260694139381
:101EBC000024072306A8149308950C950D941096EE
:101ECC001195129515961696FFF75AF80F23294679
:101EDC00019301A803230293039404940594FFF740
:101EEC00A1FA17A817962094FFF7DEFB4FF40070A9
:101EFC00FEF77AFFFFF71CFD2CB070BD00100240FE
:101F0C0080B5524C88B0FEF717FEFFF7AFFF1422D6
:101F1C00002103A800F09AF9E36C4D4843F0040348
:101F2C00E364E36C03F004030093009BE36C43F065
:101F3C000103E364E36C03F001030193019BE36C85
:101F4C0043F00203E364E36C03F002030022029308
:101F5C0008210025029BFEF731FF022303A94FF055
:101F6C00904003930593082601270495FEF76CFE19
:101F7C0003A937480396049705950695FEF764FE6A
:101F8C003448354A85604FF4E13380E80C000C236B
:101F9C004361C56005618561C56105624562FFF7F6
:101FAC00FFFEFFF755FF31463A462948FEF706FF7C
:101FBC002A48FEF795FA4FF4FA70FEF7DBFDD4F8D9
:101FCC00943099010BD52648FEF78AFAD4F8943050
:101FDC00244843F40003C4F89430FEF781FA224CF1
:101FEC00224D234E02214FF09040FEF7E1FE10B13E
:101FFC002378592B11D9002208211548FEF7DEFE53
:10200C002378592B08D8282B19D91A48FEF768FAC7
:10201C004FF47A70FEF7AEFDFEE70A2B02D128468C
:10202C00FEF75EFA2378282B02D13046FEF758FAD9
:10203C002378642001332370FEF79CFDD2E70A2B32
:10204C00EAD90D48FEF74CFAE6E700BF0010024053
:10205C0000040048B404002000440040942200080E
:10206C00A9220008BD22000844000020D22200084A
:10207C00F62200081D230008372300080A4B1A6EAD
:10208C0042F001021A661A6E82B002F0010200924E
:10209C00009A9A6D42F080529A659B6D03F08053C2
:1020AC000193019B02B070470010024030B504460A
:1020BC0089B01422002103A800F0C8F82268194B3B
:1020CC009A422DD103F5E63303249A6D42F4003283
:1020DC009A659A6D02F400320192019ADA6C42F020
:1020EC000102DA64DB6C069403F001030293029B99
:1020FC00042303930225072303A94FF09040079371
:10210C000495FEF7A1FD4FF40043039303A90023AC
:10211C004FF090400495059306940794FEF794FDB8
:10212C0009B030BD004400407047FEE7FEE7FEE713
:10213C00FEE7704770477047FEF70EBD0F49D1F8A8
:10214C00883043F47003C1F888300D4B1A680020B6
:10215C0042F001021A6098601A6822F0A85222F428
:10216C0010221A604FF48052DA601A6822F480222E
:10217C001A6098614FF000638B60704700ED00E0CF
:10218C0000100240024B01221A701878704700BFF1
:10219C000400002000207047012070470020704789
:1021AC00024B01221A701878704700BF04000020FF
:1021BC00DFF834D0002103E00C4B5B584350043162
:1021CC000B480C4B42189A42F6D30B4A02E0002300
:1021DC0042F8043B094B9A42F9D3FFF7AFFF00F0EA
:1021EC0011F8FFF78DFEFEE700000120A823000880
:1021FC00000000201C0000201C0000202C050020EA
:10220C00FEE7000070B50D4E0D4CA41BA41000256C
:10221C00A54209D10B4E0C4C00F020F8A41BA410C5
:10222C000025A54205D170BD56F8253098470135DB
:10223C00EEE756F8253098470135F2E7A023000861
:10224C00A0230008A0230008A4230008024403468E
:10225C00934200D1704703F8011BF9E7F8B500BFB2
:10226C00F8BC08BC9E467047F8B500BFF8BC08BC6B
:04227C009E467047C3
:102280000D0A0001040208001010100410101002C2
:1022900010101008496E6963696F20646520626FD1
:1022A0006F746C6F61646572004F424C20666C61A4
:1022B00067206973206163746976652E00526573C7
:1022C000657420666C61677320636C656172656418
:1022D0002E0052656C6561736520627574746F6E53
:1022E00020746F20656E74657220426F6F746C6F1E
:1022F000616465722E0052656C656173652062755C
:1023000074746F6E20746F20656E746572205379DB
:102310007374656D204D656D6F72792E00456E7416
:102320006572696E672053797374656D204D656DB4
:102330006F72792E2E2E00456E746572696E67205D
:10234000426F6F746C6F616465722E2E2E000000F8
:102350000000000000000102030406070809000055
:102360000000010203040000A0860100400D0300EC
:10237000801A060000350C0040420F0080841E00C9
:1023800000093D0000127A000024F40000366E01BE
:082390000048E801006CDC02CA
:0823980074DEFF7F010000006C
:0423A000B10100087F
:0423A4008D0100089F
:1023A80000093D0001000000AD210008912100084E
:0C23B800A9210008A1210008A5210008AF
:04000005080021BD11
:00000001FF
